{
  "_format": "hh-sol-artifact-1",
  "contractName": "NFKeeTees",
  "sourceName": "contracts/NFKeeTees.sol",
  "abi": [
    {
      "inputs": [],
      "stateMutability": "nonpayable",
      "type": "constructor"
    },
    {
      "anonymous": false,
      "inputs": [
        {
          "indexed": true,
          "internalType": "address",
          "name": "owner",
          "type": "address"
        },
        {
          "indexed": true,
          "internalType": "address",
          "name": "approved",
          "type": "address"
        },
        {
          "indexed": true,
          "internalType": "uint256",
          "name": "tokenId",
          "type": "uint256"
        }
      ],
      "name": "Approval",
      "type": "event"
    },
    {
      "anonymous": false,
      "inputs": [
        {
          "indexed": true,
          "internalType": "address",
          "name": "owner",
          "type": "address"
        },
        {
          "indexed": true,
          "internalType": "address",
          "name": "operator",
          "type": "address"
        },
        {
          "indexed": false,
          "internalType": "bool",
          "name": "approved",
          "type": "bool"
        }
      ],
      "name": "ApprovalForAll",
      "type": "event"
    },
    {
      "anonymous": false,
      "inputs": [
        {
          "indexed": true,
          "internalType": "address",
          "name": "previousOwner",
          "type": "address"
        },
        {
          "indexed": true,
          "internalType": "address",
          "name": "newOwner",
          "type": "address"
        }
      ],
      "name": "OwnershipTransferred",
      "type": "event"
    },
    {
      "anonymous": false,
      "inputs": [
        {
          "indexed": true,
          "internalType": "address",
          "name": "from",
          "type": "address"
        },
        {
          "indexed": true,
          "internalType": "address",
          "name": "to",
          "type": "address"
        },
        {
          "indexed": true,
          "internalType": "uint256",
          "name": "tokenId",
          "type": "uint256"
        }
      ],
      "name": "Transfer",
      "type": "event"
    },
    {
      "inputs": [
        {
          "internalType": "address",
          "name": "to",
          "type": "address"
        },
        {
          "internalType": "uint256",
          "name": "tokenId",
          "type": "uint256"
        }
      ],
      "name": "approve",
      "outputs": [],
      "stateMutability": "nonpayable",
      "type": "function"
    },
    {
      "inputs": [
        {
          "internalType": "address",
          "name": "owner",
          "type": "address"
        }
      ],
      "name": "balanceOf",
      "outputs": [
        {
          "internalType": "uint256",
          "name": "",
          "type": "uint256"
        }
      ],
      "stateMutability": "view",
      "type": "function"
    },
    {
      "inputs": [
        {
          "internalType": "uint256",
          "name": "tokenId",
          "type": "uint256"
        }
      ],
      "name": "getApproved",
      "outputs": [
        {
          "internalType": "address",
          "name": "",
          "type": "address"
        }
      ],
      "stateMutability": "view",
      "type": "function"
    },
    {
      "inputs": [
        {
          "internalType": "address",
          "name": "owner",
          "type": "address"
        },
        {
          "internalType": "address",
          "name": "operator",
          "type": "address"
        }
      ],
      "name": "isApprovedForAll",
      "outputs": [
        {
          "internalType": "bool",
          "name": "",
          "type": "bool"
        }
      ],
      "stateMutability": "view",
      "type": "function"
    },
    {
      "inputs": [],
      "name": "name",
      "outputs": [
        {
          "internalType": "string",
          "name": "",
          "type": "string"
        }
      ],
      "stateMutability": "view",
      "type": "function"
    },
    {
      "inputs": [],
      "name": "owner",
      "outputs": [
        {
          "internalType": "address",
          "name": "",
          "type": "address"
        }
      ],
      "stateMutability": "view",
      "type": "function"
    },
    {
      "inputs": [
        {
          "internalType": "uint256",
          "name": "tokenId",
          "type": "uint256"
        }
      ],
      "name": "ownerOf",
      "outputs": [
        {
          "internalType": "address",
          "name": "",
          "type": "address"
        }
      ],
      "stateMutability": "view",
      "type": "function"
    },
    {
      "inputs": [],
      "name": "renounceOwnership",
      "outputs": [],
      "stateMutability": "nonpayable",
      "type": "function"
    },
    {
      "inputs": [
        {
          "internalType": "uint256",
          "name": "tokenId",
          "type": "uint256"
        },
        {
          "internalType": "string",
          "name": "password",
          "type": "string"
        }
      ],
      "name": "safeMint",
      "outputs": [],
      "stateMutability": "nonpayable",
      "type": "function"
    },
    {
      "inputs": [
        {
          "internalType": "address",
          "name": "from",
          "type": "address"
        },
        {
          "internalType": "address",
          "name": "to",
          "type": "address"
        },
        {
          "internalType": "uint256",
          "name": "tokenId",
          "type": "uint256"
        }
      ],
      "name": "safeTransferFrom",
      "outputs": [],
      "stateMutability": "nonpayable",
      "type": "function"
    },
    {
      "inputs": [
        {
          "internalType": "address",
          "name": "from",
          "type": "address"
        },
        {
          "internalType": "address",
          "name": "to",
          "type": "address"
        },
        {
          "internalType": "uint256",
          "name": "tokenId",
          "type": "uint256"
        },
        {
          "internalType": "bytes",
          "name": "data",
          "type": "bytes"
        }
      ],
      "name": "safeTransferFrom",
      "outputs": [],
      "stateMutability": "nonpayable",
      "type": "function"
    },
    {
      "inputs": [
        {
          "internalType": "address",
          "name": "operator",
          "type": "address"
        },
        {
          "internalType": "bool",
          "name": "approved",
          "type": "bool"
        }
      ],
      "name": "setApprovalForAll",
      "outputs": [],
      "stateMutability": "nonpayable",
      "type": "function"
    },
    {
      "inputs": [
        {
          "internalType": "bytes4",
          "name": "interfaceId",
          "type": "bytes4"
        }
      ],
      "name": "supportsInterface",
      "outputs": [
        {
          "internalType": "bool",
          "name": "",
          "type": "bool"
        }
      ],
      "stateMutability": "view",
      "type": "function"
    },
    {
      "inputs": [],
      "name": "symbol",
      "outputs": [
        {
          "internalType": "string",
          "name": "",
          "type": "string"
        }
      ],
      "stateMutability": "view",
      "type": "function"
    },
    {
      "inputs": [
        {
          "internalType": "uint256",
          "name": "tokenId",
          "type": "uint256"
        }
      ],
      "name": "tokenURI",
      "outputs": [
        {
          "internalType": "string",
          "name": "",
          "type": "string"
        }
      ],
      "stateMutability": "view",
      "type": "function"
    },
    {
      "inputs": [
        {
          "internalType": "address",
          "name": "from",
          "type": "address"
        },
        {
          "internalType": "address",
          "name": "to",
          "type": "address"
        },
        {
          "internalType": "uint256",
          "name": "tokenId",
          "type": "uint256"
        }
      ],
      "name": "transferFrom",
      "outputs": [],
      "stateMutability": "nonpayable",
      "type": "function"
    },
    {
      "inputs": [
        {
          "internalType": "address",
          "name": "newOwner",
          "type": "address"
        }
      ],
      "name": "transferOwnership",
      "outputs": [],
      "stateMutability": "nonpayable",
      "type": "function"
    }
  ],
  "bytecode": "0x60806040523480156200001157600080fd5b506040518060400160405280600981526020017f4e464b65655465657300000000000000000000000000000000000000000000008152506040518060400160405280600481526020017f4e464b5400000000000000000000000000000000000000000000000000000000815250816000908051906020019062000096929190620001a6565b508060019080519060200190620000af929190620001a6565b505050620000d2620000c6620000d860201b60201c565b620000e060201b60201c565b620002bb565b600033905090565b6000600760009054906101000a900473ffffffffffffffffffffffffffffffffffffffff16905081600760006101000a81548173ffffffffffffffffffffffffffffffffffffffff021916908373ffffffffffffffffffffffffffffffffffffffff1602179055508173ffffffffffffffffffffffffffffffffffffffff168173ffffffffffffffffffffffffffffffffffffffff167f8be0079c531659141344cd1fd0a4f28419497f9722a3daafe3b4186f6b6457e060405160405180910390a35050565b828054620001b49062000285565b90600052602060002090601f016020900481019282620001d8576000855562000224565b82601f10620001f357805160ff191683800117855562000224565b8280016001018555821562000224579182015b828111156200022357825182559160200191906001019062000206565b5b50905062000233919062000237565b5090565b5b808211156200025257600081600090555060010162000238565b5090565b7f4e487b7100000000000000000000000000000000000000000000000000000000600052602260045260246000fd5b600060028204905060018216806200029e57607f821691505b60208210811415620002b557620002b462000256565b5b50919050565b6131a180620002cb6000396000f3fe608060405234801561001057600080fd5b506004361061010b5760003560e01c8063715018a6116100a2578063b88d4fde11610071578063b88d4fde146102a4578063bb96e082146102c0578063c87b56dd146102dc578063e985e9c51461030c578063f2fde38b1461033c5761010b565b8063715018a6146102425780638da5cb5b1461024c57806395d89b411461026a578063a22cb465146102885761010b565b806323b872dd116100de57806323b872dd146101aa57806342842e0e146101c65780636352211e146101e257806370a08231146102125761010b565b806301ffc9a71461011057806306fdde0314610140578063081812fc1461015e578063095ea7b31461018e575b600080fd5b61012a60048036038101906101259190611f41565b610358565b6040516101379190611f89565b60405180910390f35b61014861043a565b604051610155919061203d565b60405180910390f35b61017860048036038101906101739190612095565b6104cc565b6040516101859190612103565b60405180910390f35b6101a860048036038101906101a3919061214a565b610512565b005b6101c460048036038101906101bf919061218a565b61062a565b005b6101e060048036038101906101db919061218a565b61068a565b005b6101fc60048036038101906101f79190612095565b6106aa565b6040516102099190612103565b60405180910390f35b61022c600480360381019061022791906121dd565b610731565b6040516102399190612219565b60405180910390f35b61024a6107e9565b005b6102546107fd565b6040516102619190612103565b60405180910390f35b610272610827565b60405161027f919061203d565b60405180910390f35b6102a2600480360381019061029d9190612260565b6108b9565b005b6102be60048036038101906102b991906123d5565b6108cf565b005b6102da60048036038101906102d591906124f9565b610931565b005b6102f660048036038101906102f19190612095565b610ac1565b604051610303919061203d565b60405180910390f35b61032660048036038101906103219190612555565b610ad3565b6040516103339190611f89565b60405180910390f35b610356600480360381019061035191906121dd565b610b67565b005b60007f80ac58cd000000000000000000000000000000000000000000000000000000007bffffffffffffffffffffffffffffffffffffffffffffffffffffffff1916827bffffffffffffffffffffffffffffffffffffffffffffffffffffffff1916148061042357507f5b5e139f000000000000000000000000000000000000000000000000000000007bffffffffffffffffffffffffffffffffffffffffffffffffffffffff1916827bffffffffffffffffffffffffffffffffffffffffffffffffffffffff1916145b80610433575061043282610beb565b5b9050919050565b606060008054610449906125c4565b80601f0160208091040260200160405190810160405280929190818152602001828054610475906125c4565b80156104c25780601f10610497576101008083540402835291602001916104c2565b820191906000526020600020905b8154815290600101906020018083116104a557829003601f168201915b5050505050905090565b60006104d782610c55565b6004600083815260200190815260200160002060009054906101000a900473ffffffffffffffffffffffffffffffffffffffff169050919050565b600061051d826106aa565b90508073ffffffffffffffffffffffffffffffffffffffff168373ffffffffffffffffffffffffffffffffffffffff16141561058e576040517f08c379a000000000000000000000000000000000000000000000000000000000815260040161058590612668565b60405180910390fd5b8073ffffffffffffffffffffffffffffffffffffffff166105ad610ca0565b73ffffffffffffffffffffffffffffffffffffffff1614806105dc57506105db816105d6610ca0565b610ad3565b5b61061b576040517f08c379a0000000000000000000000000000000000000000000000000000000008152600401610612906126fa565b60405180910390fd5b6106258383610ca8565b505050565b61063b610635610ca0565b82610d61565b61067a576040517f08c379a00000000000000000000000000000000000000000000000000000000081526004016106719061278c565b60405180910390fd5b610685838383610df6565b505050565b6106a5838383604051806020016040528060008152506108cf565b505050565b6000806106b6836110f0565b9050600073ffffffffffffffffffffffffffffffffffffffff168173ffffffffffffffffffffffffffffffffffffffff161415610728576040517f08c379a000000000000000000000000000000000000000000000000000000000815260040161071f906127f8565b60405180910390fd5b80915050919050565b60008073ffffffffffffffffffffffffffffffffffffffff168273ffffffffffffffffffffffffffffffffffffffff1614156107a2576040517f08c379a00000000000000000000000000000000000000000000000000000000081526004016107999061288a565b60405180910390fd5b600360008373ffffffffffffffffffffffffffffffffffffffff1673ffffffffffffffffffffffffffffffffffffffff168152602001908152602001600020549050919050565b6107f161112d565b6107fb60006111ab565b565b6000600760009054906101000a900473ffffffffffffffffffffffffffffffffffffffff16905090565b606060018054610836906125c4565b80601f0160208091040260200160405190810160405280929190818152602001828054610862906125c4565b80156108af5780601f10610884576101008083540402835291602001916108af565b820191906000526020600020905b81548152906001019060200180831161089257829003601f168201915b5050505050905090565b6108cb6108c4610ca0565b8383611271565b5050565b6108e06108da610ca0565b83610d61565b61091f576040517f08c379a00000000000000000000000000000000000000000000000000000000081526004016109169061278c565b60405180910390fd5b61092b848484846113de565b50505050565b600073ffffffffffffffffffffffffffffffffffffffff16610952836110f0565b73ffffffffffffffffffffffffffffffffffffffff16146109a8576040517f08c379a000000000000000000000000000000000000000000000000000000000815260040161099f906128f6565b60405180910390fd5b6000821180156109b85750600d82105b6109f7576040517f08c379a00000000000000000000000000000000000000000000000000000000081526004016109ee90612962565b60405180910390fd5b7f012fffbffc2e60303f755c98690030c5c3718ead6f49bb75f08983ff0e67729c81604051602001610a2991906129be565b6040516020818303038152906040528051906020012060001c14610a82576040517f08c379a0000000000000000000000000000000000000000000000000000000008152600401610a7990612a21565b60405180910390fd5b610a8c338361143a565b610abd82610a9984611458565b604051602001610aa99190612a8d565b604051602081830303815290604052611530565b5050565b6060610acc826115a4565b9050919050565b6000600560008473ffffffffffffffffffffffffffffffffffffffff1673ffffffffffffffffffffffffffffffffffffffff16815260200190815260200160002060008373ffffffffffffffffffffffffffffffffffffffff1673ffffffffffffffffffffffffffffffffffffffff16815260200190815260200160002060009054906101000a900460ff16905092915050565b610b6f61112d565b600073ffffffffffffffffffffffffffffffffffffffff168173ffffffffffffffffffffffffffffffffffffffff161415610bdf576040517f08c379a0000000000000000000000000000000000000000000000000000000008152600401610bd690612b21565b60405180910390fd5b610be8816111ab565b50565b60007f01ffc9a7000000000000000000000000000000000000000000000000000000007bffffffffffffffffffffffffffffffffffffffffffffffffffffffff1916827bffffffffffffffffffffffffffffffffffffffffffffffffffffffff1916149050919050565b610c5e816116b7565b610c9d576040517f08c379a0000000000000000000000000000000000000000000000000000000008152600401610c94906127f8565b60405180910390fd5b50565b600033905090565b816004600083815260200190815260200160002060006101000a81548173ffffffffffffffffffffffffffffffffffffffff021916908373ffffffffffffffffffffffffffffffffffffffff160217905550808273ffffffffffffffffffffffffffffffffffffffff16610d1b836106aa565b73ffffffffffffffffffffffffffffffffffffffff167f8c5be1e5ebec7d5bd14f71427d1e84f3dd0314c0f7b2291e5b200ac8c7c3b92560405160405180910390a45050565b600080610d6d836106aa565b90508073ffffffffffffffffffffffffffffffffffffffff168473ffffffffffffffffffffffffffffffffffffffff161480610daf5750610dae8185610ad3565b5b80610ded57508373ffffffffffffffffffffffffffffffffffffffff16610dd5846104cc565b73ffffffffffffffffffffffffffffffffffffffff16145b91505092915050565b8273ffffffffffffffffffffffffffffffffffffffff16610e16826106aa565b73ffffffffffffffffffffffffffffffffffffffff1614610e6c576040517f08c379a0000000000000000000000000000000000000000000000000000000008152600401610e6390612bb3565b60405180910390fd5b600073ffffffffffffffffffffffffffffffffffffffff168273ffffffffffffffffffffffffffffffffffffffff161415610edc576040517f08c379a0000000000000000000000000000000000000000000000000000000008152600401610ed390612c45565b60405180910390fd5b610ee983838360016116f8565b8273ffffffffffffffffffffffffffffffffffffffff16610f09826106aa565b73ffffffffffffffffffffffffffffffffffffffff1614610f5f576040517f08c379a0000000000000000000000000000000000000000000000000000000008152600401610f5690612bb3565b60405180910390fd5b6004600082815260200190815260200160002060006101000a81549073ffffffffffffffffffffffffffffffffffffffff02191690556001600360008573ffffffffffffffffffffffffffffffffffffffff1673ffffffffffffffffffffffffffffffffffffffff168152602001908152602001600020600082825403925050819055506001600360008473ffffffffffffffffffffffffffffffffffffffff1673ffffffffffffffffffffffffffffffffffffffff16815260200190815260200160002060008282540192505081905550816002600083815260200190815260200160002060006101000a81548173ffffffffffffffffffffffffffffffffffffffff021916908373ffffffffffffffffffffffffffffffffffffffff160217905550808273ffffffffffffffffffffffffffffffffffffffff168473ffffffffffffffffffffffffffffffffffffffff167fddf252ad1be2c89b69c2b068fc378daa952ba7f163c4a11628f55a4df523b3ef60405160405180910390a46110eb838383600161181e565b505050565b60006002600083815260200190815260200160002060009054906101000a900473ffffffffffffffffffffffffffffffffffffffff169050919050565b611135610ca0565b73ffffffffffffffffffffffffffffffffffffffff166111536107fd565b73ffffffffffffffffffffffffffffffffffffffff16146111a9576040517f08c379a00000000000000000000000000000000000000000000000000000000081526004016111a090612cb1565b60405180910390fd5b565b6000600760009054906101000a900473ffffffffffffffffffffffffffffffffffffffff16905081600760006101000a81548173ffffffffffffffffffffffffffffffffffffffff021916908373ffffffffffffffffffffffffffffffffffffffff1602179055508173ffffffffffffffffffffffffffffffffffffffff168173ffffffffffffffffffffffffffffffffffffffff167f8be0079c531659141344cd1fd0a4f28419497f9722a3daafe3b4186f6b6457e060405160405180910390a35050565b8173ffffffffffffffffffffffffffffffffffffffff168373ffffffffffffffffffffffffffffffffffffffff1614156112e0576040517f08c379a00000000000000000000000000000000000000000000000000000000081526004016112d790612d1d565b60405180910390fd5b80600560008573ffffffffffffffffffffffffffffffffffffffff1673ffffffffffffffffffffffffffffffffffffffff16815260200190815260200160002060008473ffffffffffffffffffffffffffffffffffffffff1673ffffffffffffffffffffffffffffffffffffffff16815260200190815260200160002060006101000a81548160ff0219169083151502179055508173ffffffffffffffffffffffffffffffffffffffff168373ffffffffffffffffffffffffffffffffffffffff167f17307eab39ab6107e8899845ad3d59bd9653f200f220920489ca2b5937696c31836040516113d19190611f89565b60405180910390a3505050565b6113e9848484610df6565b6113f584848484611824565b611434576040517f08c379a000000000000000000000000000000000000000000000000000000000815260040161142b90612daf565b60405180910390fd5b50505050565b6114548282604051806020016040528060008152506119bb565b5050565b60606000600161146784611a16565b01905060008167ffffffffffffffff811115611486576114856122aa565b5b6040519080825280601f01601f1916602001820160405280156114b85781602001600182028036833780820191505090505b509050600082602001820190505b600115611525578080600190039150507f3031323334353637383961626364656600000000000000000000000000000000600a86061a8153600a858161150f5761150e612dcf565b5b049450600085141561152057611525565b6114c6565b819350505050919050565b611539826116b7565b611578576040517f08c379a000000000000000000000000000000000000000000000000000000000815260040161156f90612e70565b60405180910390fd5b8060066000848152602001908152602001600020908051906020019061159f929190611e32565b505050565b60606115af82610c55565b60006006600084815260200190815260200160002080546115cf906125c4565b80601f01602080910402602001604051908101604052809291908181526020018280546115fb906125c4565b80156116485780601f1061161d57610100808354040283529160200191611648565b820191906000526020600020905b81548152906001019060200180831161162b57829003601f168201915b505050505090506000611659611b69565b905060008151141561166f5781925050506116b2565b6000825111156116a457808260405160200161168c929190612e90565b604051602081830303815290604052925050506116b2565b6116ad84611b89565b925050505b919050565b60008073ffffffffffffffffffffffffffffffffffffffff166116d9836110f0565b73ffffffffffffffffffffffffffffffffffffffff1614159050919050565b600181111561181857600073ffffffffffffffffffffffffffffffffffffffff168473ffffffffffffffffffffffffffffffffffffffff161461178c5780600360008673ffffffffffffffffffffffffffffffffffffffff1673ffffffffffffffffffffffffffffffffffffffff16815260200190815260200160002060008282546117849190612ee3565b925050819055505b600073ffffffffffffffffffffffffffffffffffffffff168373ffffffffffffffffffffffffffffffffffffffff16146118175780600360008573ffffffffffffffffffffffffffffffffffffffff1673ffffffffffffffffffffffffffffffffffffffff168152602001908152602001600020600082825461180f9190612f17565b925050819055505b5b50505050565b50505050565b60006118458473ffffffffffffffffffffffffffffffffffffffff16611bf1565b156119ae578373ffffffffffffffffffffffffffffffffffffffff1663150b7a0261186e610ca0565b8786866040518563ffffffff1660e01b81526004016118909493929190612fc2565b602060405180830381600087803b1580156118aa57600080fd5b505af19250505080156118db57506040513d601f19601f820116820180604052508101906118d89190613023565b60015b61195e573d806000811461190b576040519150601f19603f3d011682016040523d82523d6000602084013e611910565b606091505b50600081511415611956576040517f08c379a000000000000000000000000000000000000000000000000000000000815260040161194d90612daf565b60405180910390fd5b805181602001fd5b63150b7a0260e01b7bffffffffffffffffffffffffffffffffffffffffffffffffffffffff1916817bffffffffffffffffffffffffffffffffffffffffffffffffffffffff1916149150506119b3565b600190505b949350505050565b6119c58383611c14565b6119d26000848484611824565b611a11576040517f08c379a0000000000000000000000000000000000000000000000000000000008152600401611a0890612daf565b60405180910390fd5b505050565b600080600090507a184f03e93ff9f4daa797ed6e38ed64bf6a1f0100000000000000008310611a74577a184f03e93ff9f4daa797ed6e38ed64bf6a1f0100000000000000008381611a6a57611a69612dcf565b5b0492506040810190505b6d04ee2d6d415b85acef81000000008310611ab1576d04ee2d6d415b85acef81000000008381611aa757611aa6612dcf565b5b0492506020810190505b662386f26fc100008310611ae057662386f26fc100008381611ad657611ad5612dcf565b5b0492506010810190505b6305f5e1008310611b09576305f5e1008381611aff57611afe612dcf565b5b0492506008810190505b6127108310611b2e576127108381611b2457611b23612dcf565b5b0492506004810190505b60648310611b515760648381611b4757611b46612dcf565b5b0492506002810190505b600a8310611b60576001810190505b80915050919050565b606060405180608001604052806043815260200161312960439139905090565b6060611b9482610c55565b6000611b9e611b69565b90506000815111611bbe5760405180602001604052806000815250611be9565b80611bc884611458565b604051602001611bd9929190612e90565b6040516020818303038152906040525b915050919050565b6000808273ffffffffffffffffffffffffffffffffffffffff163b119050919050565b600073ffffffffffffffffffffffffffffffffffffffff168273ffffffffffffffffffffffffffffffffffffffff161415611c84576040517f08c379a0000000000000000000000000000000000000000000000000000000008152600401611c7b9061309c565b60405180910390fd5b611c8d816116b7565b15611ccd576040517f08c379a0000000000000000000000000000000000000000000000000000000008152600401611cc490613108565b60405180910390fd5b611cdb6000838360016116f8565b611ce4816116b7565b15611d24576040517f08c379a0000000000000000000000000000000000000000000000000000000008152600401611d1b90613108565b60405180910390fd5b6001600360008473ffffffffffffffffffffffffffffffffffffffff1673ffffffffffffffffffffffffffffffffffffffff16815260200190815260200160002060008282540192505081905550816002600083815260200190815260200160002060006101000a81548173ffffffffffffffffffffffffffffffffffffffff021916908373ffffffffffffffffffffffffffffffffffffffff160217905550808273ffffffffffffffffffffffffffffffffffffffff16600073ffffffffffffffffffffffffffffffffffffffff167fddf252ad1be2c89b69c2b068fc378daa952ba7f163c4a11628f55a4df523b3ef60405160405180910390a4611e2e60008383600161181e565b5050565b828054611e3e906125c4565b90600052602060002090601f016020900481019282611e605760008555611ea7565b82601f10611e7957805160ff1916838001178555611ea7565b82800160010185558215611ea7579182015b82811115611ea6578251825591602001919060010190611e8b565b5b509050611eb49190611eb8565b5090565b5b80821115611ed1576000816000905550600101611eb9565b5090565b6000604051905090565b600080fd5b600080fd5b60007fffffffff0000000000000000000000000000000000000000000000000000000082169050919050565b611f1e81611ee9565b8114611f2957600080fd5b50565b600081359050611f3b81611f15565b92915050565b600060208284031215611f5757611f56611edf565b5b6000611f6584828501611f2c565b91505092915050565b60008115159050919050565b611f8381611f6e565b82525050565b6000602082019050611f9e6000830184611f7a565b92915050565b600081519050919050565b600082825260208201905092915050565b60005b83811015611fde578082015181840152602081019050611fc3565b83811115611fed576000848401525b50505050565b6000601f19601f8301169050919050565b600061200f82611fa4565b6120198185611faf565b9350612029818560208601611fc0565b61203281611ff3565b840191505092915050565b600060208201905081810360008301526120578184612004565b905092915050565b6000819050919050565b6120728161205f565b811461207d57600080fd5b50565b60008135905061208f81612069565b92915050565b6000602082840312156120ab576120aa611edf565b5b60006120b984828501612080565b91505092915050565b600073ffffffffffffffffffffffffffffffffffffffff82169050919050565b60006120ed826120c2565b9050919050565b6120fd816120e2565b82525050565b600060208201905061211860008301846120f4565b92915050565b612127816120e2565b811461213257600080fd5b50565b6000813590506121448161211e565b92915050565b6000806040838503121561216157612160611edf565b5b600061216f85828601612135565b925050602061218085828601612080565b9150509250929050565b6000806000606084860312156121a3576121a2611edf565b5b60006121b186828701612135565b93505060206121c286828701612135565b92505060406121d386828701612080565b9150509250925092565b6000602082840312156121f3576121f2611edf565b5b600061220184828501612135565b91505092915050565b6122138161205f565b82525050565b600060208201905061222e600083018461220a565b92915050565b61223d81611f6e565b811461224857600080fd5b50565b60008135905061225a81612234565b92915050565b6000806040838503121561227757612276611edf565b5b600061228585828601612135565b92505060206122968582860161224b565b9150509250929050565b600080fd5b600080fd5b7f4e487b7100000000000000000000000000000000000000000000000000000000600052604160045260246000fd5b6122e282611ff3565b810181811067ffffffffffffffff82111715612301576123006122aa565b5b80604052505050565b6000612314611ed5565b905061232082826122d9565b919050565b600067ffffffffffffffff8211156123405761233f6122aa565b5b61234982611ff3565b9050602081019050919050565b82818337600083830152505050565b600061237861237384612325565b61230a565b905082815260208101848484011115612394576123936122a5565b5b61239f848285612356565b509392505050565b600082601f8301126123bc576123bb6122a0565b5b81356123cc848260208601612365565b91505092915050565b600080600080608085870312156123ef576123ee611edf565b5b60006123fd87828801612135565b945050602061240e87828801612135565b935050604061241f87828801612080565b925050606085013567ffffffffffffffff8111156124405761243f611ee4565b5b61244c878288016123a7565b91505092959194509250565b600067ffffffffffffffff821115612473576124726122aa565b5b61247c82611ff3565b9050602081019050919050565b600061249c61249784612458565b61230a565b9050828152602081018484840111156124b8576124b76122a5565b5b6124c3848285612356565b509392505050565b600082601f8301126124e0576124df6122a0565b5b81356124f0848260208601612489565b91505092915050565b600080604083850312156125105761250f611edf565b5b600061251e85828601612080565b925050602083013567ffffffffffffffff81111561253f5761253e611ee4565b5b61254b858286016124cb565b9150509250929050565b6000806040838503121561256c5761256b611edf565b5b600061257a85828601612135565b925050602061258b85828601612135565b9150509250929050565b7f4e487b7100000000000000000000000000000000000000000000000000000000600052602260045260246000fd5b600060028204905060018216806125dc57607f821691505b602082108114156125f0576125ef612595565b5b50919050565b7f4552433732313a20617070726f76616c20746f2063757272656e74206f776e6560008201527f7200000000000000000000000000000000000000000000000000000000000000602082015250565b6000612652602183611faf565b915061265d826125f6565b604082019050919050565b6000602082019050818103600083015261268181612645565b9050919050565b7f4552433732313a20617070726f76652063616c6c6572206973206e6f7420746f60008201527f6b656e206f776e6572206f7220617070726f76656420666f7220616c6c000000602082015250565b60006126e4603d83611faf565b91506126ef82612688565b604082019050919050565b60006020820190508181036000830152612713816126d7565b9050919050565b7f4552433732313a2063616c6c6572206973206e6f7420746f6b656e206f776e6560008201527f72206f7220617070726f76656400000000000000000000000000000000000000602082015250565b6000612776602d83611faf565b91506127818261271a565b604082019050919050565b600060208201905081810360008301526127a581612769565b9050919050565b7f4552433732313a20696e76616c696420746f6b656e2049440000000000000000600082015250565b60006127e2601883611faf565b91506127ed826127ac565b602082019050919050565b60006020820190508181036000830152612811816127d5565b9050919050565b7f4552433732313a2061646472657373207a65726f206973206e6f74206120766160008201527f6c6964206f776e65720000000000000000000000000000000000000000000000602082015250565b6000612874602983611faf565b915061287f82612818565b604082019050919050565b600060208201905081810360008301526128a381612867565b9050919050565b7f616c7265616479206d696e746564000000000000000000000000000000000000600082015250565b60006128e0600e83611faf565b91506128eb826128aa565b602082019050919050565b6000602082019050818103600083015261290f816128d3565b9050919050565b7f6e6f206e66742077697468207468697320696400000000000000000000000000600082015250565b600061294c601383611faf565b915061295782612916565b602082019050919050565b6000602082019050818103600083015261297b8161293f565b9050919050565b600081905092915050565b600061299882611fa4565b6129a28185612982565b93506129b2818560208601611fc0565b80840191505092915050565b60006129ca828461298d565b915081905092915050565b7f77726f6e672070617373776f7264000000000000000000000000000000000000600082015250565b6000612a0b600e83611faf565b9150612a16826129d5565b602082019050919050565b60006020820190508181036000830152612a3a816129fe565b9050919050565b7f2e6a736f6e000000000000000000000000000000000000000000000000000000600082015250565b6000612a77600583612982565b9150612a8282612a41565b600582019050919050565b6000612a99828461298d565b9150612aa482612a6a565b915081905092915050565b7f4f776e61626c653a206e6577206f776e657220697320746865207a65726f206160008201527f6464726573730000000000000000000000000000000000000000000000000000602082015250565b6000612b0b602683611faf565b9150612b1682612aaf565b604082019050919050565b60006020820190508181036000830152612b3a81612afe565b9050919050565b7f4552433732313a207472616e736665722066726f6d20696e636f72726563742060008201527f6f776e6572000000000000000000000000000000000000000000000000000000602082015250565b6000612b9d602583611faf565b9150612ba882612b41565b604082019050919050565b60006020820190508181036000830152612bcc81612b90565b9050919050565b7f4552433732313a207472616e7366657220746f20746865207a65726f2061646460008201527f7265737300000000000000000000000000000000000000000000000000000000602082015250565b6000612c2f602483611faf565b9150612c3a82612bd3565b604082019050919050565b60006020820190508181036000830152612c5e81612c22565b9050919050565b7f4f776e61626c653a2063616c6c6572206973206e6f7420746865206f776e6572600082015250565b6000612c9b602083611faf565b9150612ca682612c65565b602082019050919050565b60006020820190508181036000830152612cca81612c8e565b9050919050565b7f4552433732313a20617070726f766520746f2063616c6c657200000000000000600082015250565b6000612d07601983611faf565b9150612d1282612cd1565b602082019050919050565b60006020820190508181036000830152612d3681612cfa565b9050919050565b7f4552433732313a207472616e7366657220746f206e6f6e20455243373231526560008201527f63656976657220696d706c656d656e7465720000000000000000000000000000602082015250565b6000612d99603283611faf565b9150612da482612d3d565b604082019050919050565b60006020820190508181036000830152612dc881612d8c565b9050919050565b7f4e487b7100000000000000000000000000000000000000000000000000000000600052601260045260246000fd5b7f45524337323155524953746f726167653a2055524920736574206f66206e6f6e60008201527f6578697374656e7420746f6b656e000000000000000000000000000000000000602082015250565b6000612e5a602e83611faf565b9150612e6582612dfe565b604082019050919050565b60006020820190508181036000830152612e8981612e4d565b9050919050565b6000612e9c828561298d565b9150612ea8828461298d565b91508190509392505050565b7f4e487b7100000000000000000000000000000000000000000000000000000000600052601160045260246000fd5b6000612eee8261205f565b9150612ef98361205f565b925082821015612f0c57612f0b612eb4565b5b828203905092915050565b6000612f228261205f565b9150612f2d8361205f565b9250827fffffffffffffffffffffffffffffffffffffffffffffffffffffffffffffffff03821115612f6257612f61612eb4565b5b828201905092915050565b600081519050919050565b600082825260208201905092915050565b6000612f9482612f6d565b612f9e8185612f78565b9350612fae818560208601611fc0565b612fb781611ff3565b840191505092915050565b6000608082019050612fd760008301876120f4565b612fe460208301866120f4565b612ff1604083018561220a565b81810360608301526130038184612f89565b905095945050505050565b60008151905061301d81611f15565b92915050565b60006020828403121561303957613038611edf565b5b60006130478482850161300e565b91505092915050565b7f4552433732313a206d696e7420746f20746865207a65726f2061646472657373600082015250565b6000613086602083611faf565b915061309182613050565b602082019050919050565b600060208201905081810360008301526130b581613079565b9050919050565b7f4552433732313a20746f6b656e20616c7265616479206d696e74656400000000600082015250565b60006130f2601c83611faf565b91506130fd826130bc565b602082019050919050565b60006020820190508181036000830152613121816130e5565b905091905056fe697066733a2f2f62616679626569626c376775656a796132646c6472737170737567376f737869783332717972327437676778727a74366968626b697277686b72712fa26469706673582212209d780d9e60dc9b39bb2355393d37f42e7f50c7768f4229a1f6eac85b05cfe93a64736f6c63430008090033",
  "linkReferences": {},
  "deployedLinkReferences": {}
}